{
  "_format": "hh-sol-artifact-1",
  "contractName": "ShadowRep",
  "sourceName": "contracts/ShadowRep.sol",
  "abi": [
    {
      "inputs": [],
      "stateMutability": "nonpayable",
      "type": "constructor"
    },
    {
      "inputs": [],
      "name": "AlreadyAttested",
      "type": "error"
    },
    {
      "inputs": [],
      "name": "AlreadyRegistered",
      "type": "error"
    },
    {
      "inputs": [],
      "name": "CannotAttestSelf",
      "type": "error"
    },
    {
      "inputs": [],
      "name": "InvalidScore",
      "type": "error"
    },
    {
      "inputs": [],
      "name": "NotRegistered",
      "type": "error"
    },
    {
      "inputs": [
        {
          "internalType": "address",
          "name": "owner",
          "type": "address"
        }
      ],
      "name": "OwnableInvalidOwner",
      "type": "error"
    },
    {
      "inputs": [
        {
          "internalType": "address",
          "name": "account",
          "type": "address"
        }
      ],
      "name": "OwnableUnauthorizedAccount",
      "type": "error"
    },
    {
      "inputs": [],
      "name": "ZamaProtocolUnsupported",
      "type": "error"
    },
    {
      "anonymous": false,
      "inputs": [
        {
          "indexed": true,
          "internalType": "address",
          "name": "from",
          "type": "address"
        },
        {
          "indexed": true,
          "internalType": "address",
          "name": "to",
          "type": "address"
        },
        {
          "indexed": false,
          "internalType": "uint256",
          "name": "timestamp",
          "type": "uint256"
        }
      ],
      "name": "AttestationGiven",
      "type": "event"
    },
    {
      "anonymous": false,
      "inputs": [
        {
          "indexed": true,
          "internalType": "address",
          "name": "previousOwner",
          "type": "address"
        },
        {
          "indexed": true,
          "internalType": "address",
          "name": "newOwner",
          "type": "address"
        }
      ],
      "name": "OwnershipTransferred",
      "type": "event"
    },
    {
      "anonymous": false,
      "inputs": [
        {
          "indexed": true,
          "internalType": "address",
          "name": "user",
          "type": "address"
        },
        {
          "indexed": false,
          "internalType": "uint256",
          "name": "timestamp",
          "type": "uint256"
        }
      ],
      "name": "UserRegistered",
      "type": "event"
    },
    {
      "inputs": [
        {
          "internalType": "address",
          "name": "user",
          "type": "address"
        },
        {
          "internalType": "uint64",
          "name": "threshold",
          "type": "uint64"
        }
      ],
      "name": "checkThreshold",
      "outputs": [
        {
          "internalType": "ebool",
          "name": "meetsThreshold",
          "type": "bytes32"
        }
      ],
      "stateMutability": "nonpayable",
      "type": "function"
    },
    {
      "inputs": [],
      "name": "confidentialProtocolId",
      "outputs": [
        {
          "internalType": "uint256",
          "name": "",
          "type": "uint256"
        }
      ],
      "stateMutability": "view",
      "type": "function"
    },
    {
      "inputs": [],
      "name": "getMyAttestationCount",
      "outputs": [
        {
          "internalType": "euint64",
          "name": "",
          "type": "bytes32"
        }
      ],
      "stateMutability": "nonpayable",
      "type": "function"
    },
    {
      "inputs": [],
      "name": "getMyScore",
      "outputs": [
        {
          "internalType": "euint64",
          "name": "",
          "type": "bytes32"
        }
      ],
      "stateMutability": "nonpayable",
      "type": "function"
    },
    {
      "inputs": [
        {
          "internalType": "address",
          "name": "user",
          "type": "address"
        }
      ],
      "name": "getProfile",
      "outputs": [
        {
          "internalType": "bool",
          "name": "registered",
          "type": "bool"
        },
        {
          "internalType": "uint256",
          "name": "lastActive",
          "type": "uint256"
        }
      ],
      "stateMutability": "view",
      "type": "function"
    },
    {
      "inputs": [
        {
          "internalType": "address",
          "name": "to",
          "type": "address"
        },
        {
          "internalType": "externalEuint64",
          "name": "encryptedScore",
          "type": "bytes32"
        },
        {
          "internalType": "bytes",
          "name": "inputProof",
          "type": "bytes"
        }
      ],
      "name": "giveAttestation",
      "outputs": [],
      "stateMutability": "nonpayable",
      "type": "function"
    },
    {
      "inputs": [
        {
          "internalType": "address",
          "name": "authorized",
          "type": "address"
        }
      ],
      "name": "grantAccess",
      "outputs": [],
      "stateMutability": "nonpayable",
      "type": "function"
    },
    {
      "inputs": [
        {
          "internalType": "address",
          "name": "",
          "type": "address"
        },
        {
          "internalType": "address",
          "name": "",
          "type": "address"
        }
      ],
      "name": "hasAttested",
      "outputs": [
        {
          "internalType": "bool",
          "name": "",
          "type": "bool"
        }
      ],
      "stateMutability": "view",
      "type": "function"
    },
    {
      "inputs": [
        {
          "internalType": "address",
          "name": "",
          "type": "address"
        }
      ],
      "name": "isRegistered",
      "outputs": [
        {
          "internalType": "bool",
          "name": "",
          "type": "bool"
        }
      ],
      "stateMutability": "view",
      "type": "function"
    },
    {
      "inputs": [
        {
          "internalType": "address",
          "name": "",
          "type": "address"
        }
      ],
      "name": "lastActivityTime",
      "outputs": [
        {
          "internalType": "uint256",
          "name": "",
          "type": "uint256"
        }
      ],
      "stateMutability": "view",
      "type": "function"
    },
    {
      "inputs": [],
      "name": "owner",
      "outputs": [
        {
          "internalType": "address",
          "name": "",
          "type": "address"
        }
      ],
      "stateMutability": "view",
      "type": "function"
    },
    {
      "inputs": [],
      "name": "register",
      "outputs": [],
      "stateMutability": "nonpayable",
      "type": "function"
    },
    {
      "inputs": [],
      "name": "renounceOwnership",
      "outputs": [],
      "stateMutability": "nonpayable",
      "type": "function"
    },
    {
      "inputs": [],
      "name": "totalAttestations",
      "outputs": [
        {
          "internalType": "uint256",
          "name": "",
          "type": "uint256"
        }
      ],
      "stateMutability": "view",
      "type": "function"
    },
    {
      "inputs": [],
      "name": "totalUsers",
      "outputs": [
        {
          "internalType": "uint256",
          "name": "",
          "type": "uint256"
        }
      ],
      "stateMutability": "view",
      "type": "function"
    },
    {
      "inputs": [
        {
          "internalType": "address",
          "name": "newOwner",
          "type": "address"
        }
      ],
      "name": "transferOwnership",
      "outputs": [],
      "stateMutability": "nonpayable",
      "type": "function"
    }
  ],
  "bytecode": "0x608060405234801561000f575f5ffd5b50336100c561001c610101565b80517f9e7b61f58c47dc699ac88507c4f5bb9f121c03808c5676a8078fe583e464970080546001600160a01b03199081166001600160a01b039384161790915560208301517f9e7b61f58c47dc699ac88507c4f5bb9f121c03808c5676a8078fe583e46497018054831691841691909117905560408301517f9e7b61f58c47dc699ac88507c4f5bb9f121c03808c5676a8078fe583e46497028054909216921691909117905550565b6001600160a01b0381166100f257604051631e4fbdf760e01b81525f600482015260240160405180910390fd5b6100fb81610270565b506102bf565b604080516060810182525f80825260208201819052918101919091524660010361015a575060408051606080820183525f8083526020808401829052928401819052835191820184528082529181018290529182015290565b4662aa36a7036101d9575060408051606080820183525f8083526020808401829052928401528251908101835273f0ffdc93b7e186bc2f8cb3daa75d86d1930a433d81527392c920834ec8941d2c77d188936e1f7a6f49c1279181019190915273be0e383937d564d7ff0bc3b46c51f0bf8d5c311a9181019190915290565b46617a6903610257575060408051606080820183525f808352602080840182905292840152825190810183527350157cffd6bbfa2dece204a89ec419c23ef5755d815273e3a9105a3a932253a70f126eb1e3b589c643dd249181019190915273be0e383937d564d7ff0bc3b46c51f0bf8d5c311a9181019190915290565b6040516373cac13b60e01b815260040160405180910390fd5b5f80546001600160a01b038381166001600160a01b0319831681178455604051919092169283917f8be0079c531659141344cd1fd0a4f28419497f9722a3daafe3b4186f6b6457e09190a35050565b611191806102cc5f395ff3fe608060405234801561000f575f5ffd5b50600436106100fb575f3560e01c80638da5cb5b11610093578063f2fde38b11610063578063f2fde38b14610227578063f459f4261461023a578063fac639dc14610267578063febc01f21461026f575f5ffd5b80638da5cb5b146101ca578063bff1f9e1146101e4578063c3c5a547146101ed578063f1599f2c1461021f575f5ffd5b80633db62a06116100ce5780633db62a061461019e57806360485742146101b1578063715018a6146101ba5780638927b030146101c2575f5ffd5b80630ae5e739146100ff5780630f53a470146101145780631aa3a00814610169578063268257df14610171575b5f5ffd5b61011261010d366004610f96565b610282565b005b61014d610122366004610f96565b6001600160a01b03165f9081526003602090815260408083205460059092529091205460ff90911691565b6040805192151583526020830191909152015b60405180910390f35b6101126102ce565b61019061017f366004610f96565b60056020525f908152604090205481565b604051908152602001610160565b6101126101ac366004610faf565b610406565b61019060075481565b6101126106d2565b6101906106e5565b5f546040516001600160a01b039091168152602001610160565b61019060065481565b61020f6101fb366004610f96565b60036020525f908152604090205460ff1681565b6040519015158152602001610160565b6101906106f3565b610112610235366004610f96565b610735565b61020f610248366004611032565b600460209081525f928352604080842090915290825290205460ff1681565b610190610777565b61019061027d366004611063565b6107b9565b335f9081526003602052604090205460ff166102b15760405163aba4733960e01b815260040160405180910390fd5b335f908152600160205260409020546102ca9082610828565b5050565b335f9081526003602052604090205460ff16156102fe57604051630ea075bf60e21b815260040160405180910390fd5b335f908152600360205260408120805460ff191660011790556103209061083a565b335f9081526001602052604081209190915561033b9061083a565b335f9081526002602090815260408083209390935560019052205461035f90610856565b50335f8181526001602052604090205461037891610828565b50335f9081526002602052604090205461039190610856565b50335f818152600260205260409020546103aa91610828565b50335f90815260056020526040812042905560068054916103ca836110a4565b909155505060405142815233907fe29d35093005f4d575e1003753426b57a7f64378ba73332eef9c6ccc2b8decd69060200160405180910390a2565b6001600160a01b038416330361042f5760405163047722ef60e51b815260040160405180910390fd5b6001600160a01b0384165f9081526003602052604090205460ff166104675760405163aba4733960e01b815260040160405180910390fd5b335f9081526004602090815260408083206001600160a01b038816845290915290205460ff16156104ab576040516335d9080560e01b815260040160405180910390fd5b5f6104eb8484848080601f0160208091040260200160405190810160405280939291908181526020018383808284375f9201919091525061086592505050565b90505f6104f8600161083a565b90505f610505606461083a565b90505f6105128484610879565b90505f61051f85846108a7565b905061052c8285876108d5565b94506105398184876108d5565b6001600160a01b038a165f9081526001602052604090205490955061055e9086610914565b6001600160a01b038a165f908152600160208181526040808420949094556002905291902054610596916105919061083a565b610914565b6001600160a01b038a165f908152600260209081526040808320939093556001905220546105c390610856565b506001600160a01b0389165f908152600160205260409020546105e6908a610828565b506001600160a01b0389165f9081526002602052604090205461060890610856565b506001600160a01b0389165f9081526002602052604090205461062b908a610828565b50335f8181526004602090815260408083206001600160a01b038e16808552908352818420805460ff19166001179055938352600590915280822042908190559282528120919091556007805491610682836110a4565b90915550506040514281526001600160a01b038a169033907fa39b118026056396adc995f954f6c69c650adf5c485bca05250638792e419da89060200160405180910390a3505050505050505050565b6106da610942565b6106e35f61096e565b565b5f6106ee6109d5565b905090565b335f9081526003602052604081205460ff166107225760405163aba4733960e01b815260040160405180910390fd5b50335f9081526001602052604090205490565b61073d610942565b6001600160a01b03811661076b57604051631e4fbdf760e01b81525f60048201526024015b60405180910390fd5b6107748161096e565b50565b335f9081526003602052604081205460ff166107a65760405163aba4733960e01b815260040160405180910390fd5b50335f9081526002602052604090205490565b6001600160a01b0382165f9081526003602052604081205460ff166107f15760405163aba4733960e01b815260040160405180910390fd5b5f6107fb8361083a565b6001600160a01b0385165f908152600160205260409020549091506108209082610a09565b949350505050565b5f6108338383610a37565b5090919050565b5f6108508267ffffffffffffffff166005610aad565b92915050565b5f6108618230610a37565b5090565b5f61087283836005610b4f565b9392505050565b5f8261088b576108885f61083a565b92505b8161089c576108995f61083a565b91505b61087283835f610c5c565b5f826108b9576108b65f61083a565b92505b816108ca576108c75f61083a565b91505b61087283835f610d2c565b5f836108e7576108e45f610db6565b93505b826108f8576108f55f61083a565b92505b81610909576109065f61083a565b91505b610820848484610dd1565b5f82610926576109235f61083a565b92505b81610937576109345f61083a565b91505b61087283835f610e67565b5f546001600160a01b031633146106e35760405163118cdaa760e01b8152336004820152602401610762565b5f80546001600160a01b038381167fffffffffffffffffffffffff0000000000000000000000000000000000000000831681178455604051919092169283917f8be0079c531659141344cd1fd0a4f28419497f9722a3daafe3b4186f6b6457e09190a35050565b5f466001036109e45750600190565b4662aa36a7036109f5575061271190565b46617a6903610a0457505f1990565b505f90565b5f82610a1b57610a185f61083a565b92505b81610a2c57610a295f61083a565b91505b61087283835f610ef1565b5f5f5160206111655f395f51905f528054604051635ca4b5b160e11b8152600481018690526001600160a01b03858116602483015292935091169063b9496b62906044015f604051808303815f87803b158015610a92575f5ffd5b505af1158015610aa4573d5f5f3e3d5ffd5b50505050505050565b7f9e7b61f58c47dc699ac88507c4f5bb9f121c03808c5676a8078fe583e464970154604051639cd07acb60e01b81525f915f5160206111655f395f51905f52916001600160a01b0390911690639cd07acb90610b0f90879087906004016110e8565b6020604051808303815f875af1158015610b2b573d5f5f3e3d5ffd5b505050506040513d601f19601f8201168201806040525081019061082091906110fc565b7f9e7b61f58c47dc699ac88507c4f5bb9f121c03808c5676a8078fe583e46497015460405163045fc19560e11b81525f915f5160206111655f395f51905f52916001600160a01b03909116906308bf832a90610bb5908890339089908990600401611113565b6020604051808303815f875af1158015610bd1573d5f5f3e3d5ffd5b505050506040513d601f19601f82011682018060405250810190610bf591906110fc565b8154604051630f8e573b60e21b8152600481018390523360248201529193506001600160a01b031690633e395cec906044015f604051808303815f87803b158015610c3e575f5ffd5b505af1158015610c50573d5f5f3e3d5ffd5b50505050509392505050565b5f5f8215610c6f5750600160f81b610c72565b505f5b7f9e7b61f58c47dc699ac88507c4f5bb9f121c03808c5676a8078fe583e464970154604051637210768160e01b815260048101879052602481018690526001600160f81b0319831660448201525f5160206111655f395f51905f52916001600160a01b0316906372107681906064015b6020604051808303815f875af1158015610cfe573d5f5f3e3d5ffd5b505050506040513d601f19601f82011682018060405250810190610d2291906110fc565b9695505050505050565b5f5f8215610d3f5750600160f81b610d42565b505f5b7f9e7b61f58c47dc699ac88507c4f5bb9f121c03808c5676a8078fe583e4649701546040516385362ee760e01b815260048101879052602481018690526001600160f81b0319831660448201525f5160206111655f395f51905f52916001600160a01b0316906385362ee790606401610ce2565b5f61085082610dc5575f610dc8565b60015b60ff165f610aad565b5f805f5160206111655f395f51905f526001810154604051637702dcff60e01b81526004810188905260248101879052604481018690529192506001600160a01b031690637702dcff906064016020604051808303815f875af1158015610e3a573d5f5f3e3d5ffd5b505050506040513d601f19601f82011682018060405250810190610e5e91906110fc565b95945050505050565b5f5f8215610e7a5750600160f81b610e7d565b505f5b7f9e7b61f58c47dc699ac88507c4f5bb9f121c03808c5676a8078fe583e46497015460405163022f65e760e31b815260048101879052602481018690526001600160f81b0319831660448201525f5160206111655f395f51905f52916001600160a01b03169063117b2f3890606401610ce2565b5f5f8215610f045750600160f81b610f07565b505f5b7f9e7b61f58c47dc699ac88507c4f5bb9f121c03808c5676a8078fe583e464970154604051631391547f60e01b815260048101879052602481018690526001600160f81b0319831660448201525f5160206111655f395f51905f52916001600160a01b031690631391547f90606401610ce2565b80356001600160a01b0381168114610f91575f5ffd5b919050565b5f60208284031215610fa6575f5ffd5b61087282610f7b565b5f5f5f5f60608587031215610fc2575f5ffd5b610fcb85610f7b565b935060208501359250604085013567ffffffffffffffff811115610fed575f5ffd5b8501601f81018713610ffd575f5ffd5b803567ffffffffffffffff811115611013575f5ffd5b876020828401011115611024575f5ffd5b949793965060200194505050565b5f5f60408385031215611043575f5ffd5b61104c83610f7b565b915061105a60208401610f7b565b90509250929050565b5f5f60408385031215611074575f5ffd5b61107d83610f7b565b9150602083013567ffffffffffffffff81168114611099575f5ffd5b809150509250929050565b5f600182016110c157634e487b7160e01b5f52601160045260245ffd5b5060010190565b605481106110e457634e487b7160e01b5f52602160045260245ffd5b9052565b8281526040810161087260208301846110c8565b5f6020828403121561110c575f5ffd5b5051919050565b8481526001600160a01b0384166020820152608060408201525f8351806080840152806020860160a085015e5f60a0828501015260a0601f19601f830116840101915050610e5e60608301846110c856fe9e7b61f58c47dc699ac88507c4f5bb9f121c03808c5676a8078fe583e4649700a164736f6c634300081b000a",
  "linkReferences": {},
  "deployedLinkReferences": {}
}